{
  "_format": "hh-sol-artifact-1",
  "contractName": "BribeP2P",
  "sourceName": "contracts/BribeP2P.sol",
  "abi": [
    {
      "inputs": [
        {
          "internalType": "address",
          "name": "_paymentToken",
          "type": "address"
        }
      ],
      "stateMutability": "nonpayable",
      "type": "constructor"
    },
    {
      "anonymous": false,
      "inputs": [
        {
          "indexed": true,
          "internalType": "address",
          "name": "previousOwner",
          "type": "address"
        },
        {
          "indexed": true,
          "internalType": "address",
          "name": "newOwner",
          "type": "address"
        }
      ],
      "name": "OwnershipTransferred",
      "type": "event"
    },
    {
      "inputs": [
        {
          "internalType": "uint256",
          "name": "_index",
          "type": "uint256"
        },
        {
          "internalType": "bytes",
          "name": "_signedData",
          "type": "bytes"
        }
      ],
      "name": "acceptSigningRequest",
      "outputs": [],
      "stateMutability": "nonpayable",
      "type": "function"
    },
    {
      "inputs": [],
      "name": "owner",
      "outputs": [
        {
          "internalType": "address",
          "name": "",
          "type": "address"
        }
      ],
      "stateMutability": "view",
      "type": "function"
    },
    {
      "inputs": [],
      "name": "paymentToken",
      "outputs": [
        {
          "internalType": "contract IERC20",
          "name": "",
          "type": "address"
        }
      ],
      "stateMutability": "view",
      "type": "function"
    },
    {
      "inputs": [
        {
          "internalType": "uint256",
          "name": "_blockNumber",
          "type": "uint256"
        },
        {
          "internalType": "bytes",
          "name": "_data",
          "type": "bytes"
        },
        {
          "internalType": "uint256",
          "name": "_amount",
          "type": "uint256"
        }
      ],
      "name": "pushSigningRequest",
      "outputs": [],
      "stateMutability": "nonpayable",
      "type": "function"
    },
    {
      "inputs": [
        {
          "internalType": "uint256",
          "name": "_index",
          "type": "uint256"
        }
      ],
      "name": "rejectSigningRequest",
      "outputs": [],
      "stateMutability": "nonpayable",
      "type": "function"
    },
    {
      "inputs": [],
      "name": "renounceOwnership",
      "outputs": [],
      "stateMutability": "nonpayable",
      "type": "function"
    },
    {
      "inputs": [],
      "name": "signingRequestCount",
      "outputs": [
        {
          "internalType": "uint256",
          "name": "",
          "type": "uint256"
        }
      ],
      "stateMutability": "view",
      "type": "function"
    },
    {
      "inputs": [
        {
          "internalType": "uint256",
          "name": "",
          "type": "uint256"
        }
      ],
      "name": "signingRequests",
      "outputs": [
        {
          "internalType": "enum SigningRequestStatus",
          "name": "status",
          "type": "uint8"
        },
        {
          "internalType": "address",
          "name": "counterparty",
          "type": "address"
        },
        {
          "internalType": "uint256",
          "name": "offer",
          "type": "uint256"
        },
        {
          "internalType": "uint256",
          "name": "blockNumber",
          "type": "uint256"
        },
        {
          "internalType": "bytes",
          "name": "data",
          "type": "bytes"
        }
      ],
      "stateMutability": "view",
      "type": "function"
    },
    {
      "inputs": [
        {
          "internalType": "address",
          "name": "newOwner",
          "type": "address"
        }
      ],
      "name": "transferOwnership",
      "outputs": [],
      "stateMutability": "nonpayable",
      "type": "function"
    }
  ],
  "bytecode": "0x60806040523480156200001157600080fd5b5060405162001fe538038062001fe58339818101604052810190620000379190620001dd565b620000576200004b620000a760201b60201c565b620000af60201b60201c565b80600160006101000a81548173ffffffffffffffffffffffffffffffffffffffff021916908373ffffffffffffffffffffffffffffffffffffffff1602179055506000600281905550506200020f565b600033905090565b60008060009054906101000a900473ffffffffffffffffffffffffffffffffffffffff169050816000806101000a81548173ffffffffffffffffffffffffffffffffffffffff021916908373ffffffffffffffffffffffffffffffffffffffff1602179055508173ffffffffffffffffffffffffffffffffffffffff168173ffffffffffffffffffffffffffffffffffffffff167f8be0079c531659141344cd1fd0a4f28419497f9722a3daafe3b4186f6b6457e060405160405180910390a35050565b600080fd5b600073ffffffffffffffffffffffffffffffffffffffff82169050919050565b6000620001a58262000178565b9050919050565b620001b78162000198565b8114620001c357600080fd5b50565b600081519050620001d781620001ac565b92915050565b600060208284031215620001f657620001f562000173565b5b60006200020684828501620001c6565b91505092915050565b611dc6806200021f6000396000f3fe608060405234801561001057600080fd5b50600436106100935760003560e01c806343aa79061161006657806343aa790614610124578063715018a6146101405780638da5cb5b1461014a578063a4d3668b14610168578063f2fde38b1461018457610093565b80630e7816411461009857806314405027146100cc578063251a9031146100ea5780633013ce2914610106575b600080fd5b6100b260048036038101906100ad9190610e17565b6101a0565b6040516100c3959493929190610f9b565b60405180910390f35b6100d461028b565b6040516100e19190610ff5565b60405180910390f35b61010460048036038101906100ff9190610e17565b610291565b005b61010e61047a565b60405161011b919061106f565b60405180910390f35b61013e600480360381019061013991906110ef565b6104a0565b005b6101486107a6565b005b6101526107ba565b60405161015f919061114f565b60405180910390f35b610182600480360381019061017d919061116a565b6107e3565b005b61019e6004803603810190610199919061120a565b610bda565b005b60036020528060005260406000206000915090508060000160009054906101000a900460ff16908060000160019054906101000a900473ffffffffffffffffffffffffffffffffffffffff169080600101549080600201549080600301805461020890611266565b80601f016020809104026020016040519081016040528092919081815260200182805461023490611266565b80156102815780601f1061025657610100808354040283529160200191610281565b820191906000526020600020905b81548152906001019060200180831161026457829003601f168201915b5050505050905085565b60025481565b610299610c5d565b60025481106102dd576040517f08c379a00000000000000000000000000000000000000000000000000000000081526004016102d4906112f4565b60405180910390fd5b600060028111156102f1576102f0610e44565b5b6003600083815260200190815260200160002060000160009054906101000a900460ff16600281111561032757610326610e44565b5b14610367576040517f08c379a000000000000000000000000000000000000000000000000000000000815260040161035e90611386565b60405180910390fd5b600060036000838152602001908152602001600020905060028160000160006101000a81548160ff021916908360028111156103a6576103a5610e44565b5b0217905550600160009054906101000a900473ffffffffffffffffffffffffffffffffffffffff1673ffffffffffffffffffffffffffffffffffffffff166323b872dd308360000160019054906101000a900473ffffffffffffffffffffffffffffffffffffffff1684600101546040518463ffffffff1660e01b8152600401610432939291906113a6565b6020604051808303816000875af1158015610451573d6000803e3d6000fd5b505050506040513d601f19601f820116820180604052508101906104759190611415565b505050565b600160009054906101000a900473ffffffffffffffffffffffffffffffffffffffff1681565b6104a8610c5d565b60025483106104ec576040517f08c379a00000000000000000000000000000000000000000000000000000000081526004016104e3906112f4565b60405180910390fd5b60006002811115610500576104ff610e44565b5b6003600085815260200190815260200160002060000160009054906101000a900460ff16600281111561053657610535610e44565b5b14610576576040517f08c379a000000000000000000000000000000000000000000000000000000000815260040161056d906114b4565b60405180910390fd5b600060036000858152602001908152602001600020905060006105976107ba565b8260020154836003016040516020016105b2939291906115e0565b60405160208183030381529060405280519060200120905060006105d582610cdb565b9050631626ba7e60e01b6105e76107ba565b73ffffffffffffffffffffffffffffffffffffffff16631626ba7e8388886040518463ffffffff1660e01b81526004016106239392919061166e565b602060405180830381865afa158015610640573d6000803e3d6000fd5b505050506040513d601f19601f8201168201806040525081019061066491906116f8565b7bffffffffffffffffffffffffffffffffffffffffffffffffffffffff1916146106c3576040517f08c379a00000000000000000000000000000000000000000000000000000000081526004016106ba90611771565b60405180910390fd5b60018360000160006101000a81548160ff021916908360028111156106eb576106ea610e44565b5b0217905550600160009054906101000a900473ffffffffffffffffffffffffffffffffffffffff1673ffffffffffffffffffffffffffffffffffffffff166323b872dd306107376107ba565b86600101546040518463ffffffff1660e01b815260040161075a939291906113a6565b6020604051808303816000875af1158015610779573d6000803e3d6000fd5b505050506040513d601f19601f8201168201806040525081019061079d9190611415565b50505050505050565b6107ae610c5d565b6107b86000610d0b565b565b60008060009054906101000a900473ffffffffffffffffffffffffffffffffffffffff16905090565b60008111610826576040517f08c379a000000000000000000000000000000000000000000000000000000000815260040161081d90611803565b60405180910390fd5b80600160009054906101000a900473ffffffffffffffffffffffffffffffffffffffff1673ffffffffffffffffffffffffffffffffffffffff166370a08231336040518263ffffffff1660e01b8152600401610882919061114f565b602060405180830381865afa15801561089f573d6000803e3d6000fd5b505050506040513d601f19601f820116820180604052508101906108c39190611838565b1015610904576040517f08c379a00000000000000000000000000000000000000000000000000000000081526004016108fb906118b1565b60405180910390fd5b80600160009054906101000a900473ffffffffffffffffffffffffffffffffffffffff1673ffffffffffffffffffffffffffffffffffffffff1663dd62ed3e33306040518363ffffffff1660e01b81526004016109629291906118d1565b602060405180830381865afa15801561097f573d6000803e3d6000fd5b505050506040513d601f19601f820116820180604052508101906109a39190611838565b10156109e4576040517f08c379a00000000000000000000000000000000000000000000000000000000081526004016109db90611946565b60405180910390fd5b600160009054906101000a900473ffffffffffffffffffffffffffffffffffffffff1673ffffffffffffffffffffffffffffffffffffffff166323b872dd3330846040518463ffffffff1660e01b8152600401610a43939291906113a6565b6020604051808303816000875af1158015610a62573d6000803e3d6000fd5b505050506040513d601f19601f82011682018060405250810190610a869190611415565b506040518060a0016040528060006002811115610aa657610aa5610e44565b5b81526020013373ffffffffffffffffffffffffffffffffffffffff16815260200182815260200185815260200184848080601f016020809104026020016040519081016040528093929190818152602001838380828437600081840152601f19601f8201169050808301925050505050505081525060036000600254815260200190815260200160002060008201518160000160006101000a81548160ff02191690836002811115610b5b57610b5a610e44565b5b021790555060208201518160000160016101000a81548173ffffffffffffffffffffffffffffffffffffffff021916908373ffffffffffffffffffffffffffffffffffffffff16021790555060408201518160010155606082015181600201556080820151816003019081610bd09190611b22565b5090505050505050565b610be2610c5d565b600073ffffffffffffffffffffffffffffffffffffffff168173ffffffffffffffffffffffffffffffffffffffff1603610c51576040517f08c379a0000000000000000000000000000000000000000000000000000000008152600401610c4890611c66565b60405180910390fd5b610c5a81610d0b565b50565b610c65610dcf565b73ffffffffffffffffffffffffffffffffffffffff16610c836107ba565b73ffffffffffffffffffffffffffffffffffffffff1614610cd9576040517f08c379a0000000000000000000000000000000000000000000000000000000008152600401610cd090611cd2565b60405180910390fd5b565b600081604051602001610cee9190611d6a565b604051602081830303815290604052805190602001209050919050565b60008060009054906101000a900473ffffffffffffffffffffffffffffffffffffffff169050816000806101000a81548173ffffffffffffffffffffffffffffffffffffffff021916908373ffffffffffffffffffffffffffffffffffffffff1602179055508173ffffffffffffffffffffffffffffffffffffffff168173ffffffffffffffffffffffffffffffffffffffff167f8be0079c531659141344cd1fd0a4f28419497f9722a3daafe3b4186f6b6457e060405160405180910390a35050565b600033905090565b600080fd5b600080fd5b6000819050919050565b610df481610de1565b8114610dff57600080fd5b50565b600081359050610e1181610deb565b92915050565b600060208284031215610e2d57610e2c610dd7565b5b6000610e3b84828501610e02565b91505092915050565b7f4e487b7100000000000000000000000000000000000000000000000000000000600052602160045260246000fd5b60038110610e8457610e83610e44565b5b50565b6000819050610e9582610e73565b919050565b6000610ea582610e87565b9050919050565b610eb581610e9a565b82525050565b600073ffffffffffffffffffffffffffffffffffffffff82169050919050565b6000610ee682610ebb565b9050919050565b610ef681610edb565b82525050565b610f0581610de1565b82525050565b600081519050919050565b600082825260208201905092915050565b60005b83811015610f45578082015181840152602081019050610f2a565b60008484015250505050565b6000601f19601f8301169050919050565b6000610f6d82610f0b565b610f778185610f16565b9350610f87818560208601610f27565b610f9081610f51565b840191505092915050565b600060a082019050610fb06000830188610eac565b610fbd6020830187610eed565b610fca6040830186610efc565b610fd76060830185610efc565b8181036080830152610fe98184610f62565b90509695505050505050565b600060208201905061100a6000830184610efc565b92915050565b6000819050919050565b600061103561103061102b84610ebb565b611010565b610ebb565b9050919050565b60006110478261101a565b9050919050565b60006110598261103c565b9050919050565b6110698161104e565b82525050565b60006020820190506110846000830184611060565b92915050565b600080fd5b600080fd5b600080fd5b60008083601f8401126110af576110ae61108a565b5b8235905067ffffffffffffffff8111156110cc576110cb61108f565b5b6020830191508360018202830111156110e8576110e7611094565b5b9250929050565b60008060006040848603121561110857611107610dd7565b5b600061111686828701610e02565b935050602084013567ffffffffffffffff81111561113757611136610ddc565b5b61114386828701611099565b92509250509250925092565b60006020820190506111646000830184610eed565b92915050565b6000806000806060858703121561118457611183610dd7565b5b600061119287828801610e02565b945050602085013567ffffffffffffffff8111156111b3576111b2610ddc565b5b6111bf87828801611099565b935093505060406111d287828801610e02565b91505092959194509250565b6111e781610edb565b81146111f257600080fd5b50565b600081359050611204816111de565b92915050565b6000602082840312156112205761121f610dd7565b5b600061122e848285016111f5565b91505092915050565b7f4e487b7100000000000000000000000000000000000000000000000000000000600052602260045260246000fd5b6000600282049050600182168061127e57607f821691505b60208210810361129157611290611237565b5b50919050565b600082825260208201905092915050565b7f496e76616c696420696e6465782e000000000000000000000000000000000000600082015250565b60006112de600e83611297565b91506112e9826112a8565b602082019050919050565b6000602082019050818103600083015261130d816112d1565b9050919050565b7f5369676e696e6720726571756573742068617320616c7265616479206265656e60008201527f2061636365707465642e00000000000000000000000000000000000000000000602082015250565b6000611370602a83611297565b915061137b82611314565b604082019050919050565b6000602082019050818103600083015261139f81611363565b9050919050565b60006060820190506113bb6000830186610eed565b6113c86020830185610eed565b6113d56040830184610efc565b949350505050565b60008115159050919050565b6113f2816113dd565b81146113fd57600080fd5b50565b60008151905061140f816113e9565b92915050565b60006020828403121561142b5761142a610dd7565b5b600061143984828501611400565b91505092915050565b7f5369676e696e6720726571756573742068617320746f2062652050656e64696e60008201527f6700000000000000000000000000000000000000000000000000000000000000602082015250565b600061149e602183611297565b91506114a982611442565b604082019050919050565b600060208201905081810360008301526114cd81611491565b9050919050565b60008160601b9050919050565b60006114ec826114d4565b9050919050565b60006114fe826114e1565b9050919050565b61151661151182610edb565b6114f3565b82525050565b6000819050919050565b61153761153282610de1565b61151c565b82525050565b600081905092915050565b60008190508160005260206000209050919050565b6000815461156a81611266565b611574818661153d565b9450600182166000811461158f57600181146115a4576115d7565b60ff19831686528115158202860193506115d7565b6115ad85611548565b60005b838110156115cf578154818901526001820191506020810190506115b0565b838801955050505b50505092915050565b60006115ec8286611505565b6014820191506115fc8285611526565b60208201915061160c828461155d565b9150819050949350505050565b6000819050919050565b61162c81611619565b82525050565b82818337600083830152505050565b600061164d8385610f16565b935061165a838584611632565b61166383610f51565b840190509392505050565b60006040820190506116836000830186611623565b8181036020830152611696818486611641565b9050949350505050565b60007fffffffff0000000000000000000000000000000000000000000000000000000082169050919050565b6116d5816116a0565b81146116e057600080fd5b50565b6000815190506116f2816116cc565b92915050565b60006020828403121561170e5761170d610dd7565b5b600061171c848285016116e3565b91505092915050565b7f496e76616c6964207369676e61747572652e0000000000000000000000000000600082015250565b600061175b601283611297565b915061176682611725565b602082019050919050565b6000602082019050818103600083015261178a8161174e565b9050919050565b7f416d6f756e74206d7573742062652067726561746572207468616e207a65726f60008201527f2e00000000000000000000000000000000000000000000000000000000000000602082015250565b60006117ed602183611297565b91506117f882611791565b604082019050919050565b6000602082019050818103600083015261181c816117e0565b9050919050565b60008151905061183281610deb565b92915050565b60006020828403121561184e5761184d610dd7565b5b600061185c84828501611823565b91505092915050565b7f496e73756666696369656e7420746f6b656e2062616c616e63652e0000000000600082015250565b600061189b601b83611297565b91506118a682611865565b602082019050919050565b600060208201905081810360008301526118ca8161188e565b9050919050565b60006040820190506118e66000830185610eed565b6118f36020830184610eed565b9392505050565b7f496e73756666696369656e7420616c6c6f77616e63652e000000000000000000600082015250565b6000611930601783611297565b915061193b826118fa565b602082019050919050565b6000602082019050818103600083015261195f81611923565b9050919050565b7f4e487b7100000000000000000000000000000000000000000000000000000000600052604160045260246000fd5b60006020601f8301049050919050565b600082821b905092915050565b6000600883026119e27fffffffffffffffffffffffffffffffffffffffffffffffffffffffffffffffff826119a5565b6119ec86836119a5565b95508019841693508086168417925050509392505050565b6000611a1f611a1a611a1584610de1565b611010565b610de1565b9050919050565b6000819050919050565b611a3983611a04565b611a4d611a4582611a26565b8484546119b2565b825550505050565b600090565b611a62611a55565b611a6d818484611a30565b505050565b5b81811015611a9157611a86600082611a5a565b600181019050611a73565b5050565b601f821115611ad657611aa781611548565b611ab084611995565b81016020851015611abf578190505b611ad3611acb85611995565b830182611a72565b50505b505050565b600082821c905092915050565b6000611af960001984600802611adb565b1980831691505092915050565b6000611b128383611ae8565b9150826002028217905092915050565b611b2b82610f0b565b67ffffffffffffffff811115611b4457611b43611966565b5b611b4e8254611266565b611b59828285611a95565b600060209050601f831160018114611b8c5760008415611b7a578287015190505b611b848582611b06565b865550611bec565b601f198416611b9a86611548565b60005b82811015611bc257848901518255600182019150602085019450602081019050611b9d565b86831015611bdf5784890151611bdb601f891682611ae8565b8355505b6001600288020188555050505b505050505050565b7f4f776e61626c653a206e6577206f776e657220697320746865207a65726f206160008201527f6464726573730000000000000000000000000000000000000000000000000000602082015250565b6000611c50602683611297565b9150611c5b82611bf4565b604082019050919050565b60006020820190508181036000830152611c7f81611c43565b9050919050565b7f4f776e61626c653a2063616c6c6572206973206e6f7420746865206f776e6572600082015250565b6000611cbc602083611297565b9150611cc782611c86565b602082019050919050565b60006020820190508181036000830152611ceb81611caf565b9050919050565b600081905092915050565b7f19457468657265756d205369676e6564204d6573736167653a0a333200000000600082015250565b6000611d33601c83611cf2565b9150611d3e82611cfd565b601c82019050919050565b6000819050919050565b611d64611d5f82611619565b611d49565b82525050565b6000611d7582611d26565b9150611d818284611d53565b6020820191508190509291505056fea2646970667358221220de16c60a7568433fb30e457c0757fcaaf76c2b92c1ea555c0fe8faa36f2ba24e64736f6c63430008130033",
  "linkReferences": {},
  "deployedLinkReferences": {}
}